{
  "address": "0xbC99415C93b48521E2651ee9eF175dEde499B694",
  "abi": [
    {
      "inputs": [
        {
          "internalType": "address",
          "name": "owner",
          "type": "address"
        }
      ],
      "name": "createAccount",
      "outputs": [
        {
          "internalType": "address",
          "name": "",
          "type": "address"
        }
      ],
      "stateMutability": "nonpayable",
      "type": "function"
    }
  ],
  "transactionHash": "0x669a9289d3a1f5e43a8d0ff32eb3d85fbb5f5e75b2834c540433f341b2ea2377",
  "args": [],
  "numDeployments": 1,
  "solcInputHash": "c4bfb2ac28dbd67288cadb88457e8ba4",
  "bytecode": "0x608060405234801561001057600080fd5b506108e3806100206000396000f3fe608060405234801561001057600080fd5b506004361061002b5760003560e01c80639859387b14610030575b600080fd5b61004361003e366004610219565b61005f565b6040516001600160a01b03909116815260200160405180910390f35b6040516000906001600160a01b03831690829061007e6020820161020c565b601f1982820381018352601f9091011660408181526001600160a01b03871660208301520160408051601f19818403018152908290526100c19291602001610279565b604051602081830303815290604052905060006100e5838380519060200120610112565b90506001600160a01b0381163b156100ff57949350505050565b6101098383610128565b95945050505050565b600061011f8383306101e2565b90505b92915050565b600081516000036101805760405162461bcd60e51b815260206004820181905260248201527f437265617465323a2062797465636f6465206c656e677468206973207a65726f60448201526064015b60405180910390fd5b828251602084016000f590506001600160a01b0381166101225760405162461bcd60e51b815260206004820152601960248201527f437265617465323a204661696c6564206f6e206465706c6f79000000000000006044820152606401610177565b6000604051836040820152846020820152828152600b8101905060ff815360559020949350505050565b6106178061029783390190565b60006020828403121561022b57600080fd5b81356001600160a01b038116811461024257600080fd5b9392505050565b6000815160005b8181101561026a5760208185018101518683015201610250565b50600093019283525090919050565b600061028e6102888386610249565b84610249565b94935050505056fe608060405234801561001057600080fd5b5060405161061738038061061783398101604081905261002f91610054565b600180546001600160a01b0319166001600160a01b0392909216919091179055610084565b60006020828403121561006657600080fd5b81516001600160a01b038116811461007d57600080fd5b9392505050565b610584806100936000396000f3fe6080604052600436106100435760003560e01c806306661abd1461004f5780633a871cdd1461007857806361461954146100985780638da5cb5b146100af57600080fd5b3661004a57005b600080fd5b34801561005b57600080fd5b5061006560005481565b6040519081526020015b60405180910390f35b34801561008457600080fd5b50610065610093366004610476565b610101565b3480156100a457600080fd5b506100ad6101b9565b005b3480156100bb57600080fd5b506001546100dc9073ffffffffffffffffffffffffffffffffffffffff1681565b60405173ffffffffffffffffffffffffffffffffffffffff909116815260200161006f565b7f19457468657265756d205369676e6564204d6573736167653a0a3332000000006000908152601c839052603c8120819061017e906101446101408801886104ca565b8080601f0160208091040260200160405190810160405280939291908181526020018383808284376000920191909152506101cf92505050565b60015490915073ffffffffffffffffffffffffffffffffffffffff8083169116146101aa5760016101ad565b60005b60ff1695945050505050565b6000805490806101c883610511565b9190505550565b60008060006101de85856101f3565b915091506101eb81610238565b509392505050565b60008082516041036102295760208301516040840151606085015160001a61021d878285856103a5565b94509450505050610231565b506000905060025b9250929050565b600081600481111561024c5761024c610538565b036102545750565b600181600481111561026857610268610538565b036102ba5760405162461bcd60e51b815260206004820152601860248201527f45434453413a20696e76616c6964207369676e6174757265000000000000000060448201526064015b60405180910390fd5b60028160048111156102ce576102ce610538565b0361031b5760405162461bcd60e51b815260206004820152601f60248201527f45434453413a20696e76616c6964207369676e6174757265206c656e6774680060448201526064016102b1565b600381600481111561032f5761032f610538565b036103a25760405162461bcd60e51b815260206004820152602260248201527f45434453413a20696e76616c6964207369676e6174757265202773272076616c60448201527f756500000000000000000000000000000000000000000000000000000000000060648201526084016102b1565b50565b6000807f7fffffffffffffffffffffffffffffff5d576e7357a4501ddfe92f46681b20a08311156103dc575060009050600361046d565b6040805160008082526020820180845289905260ff881692820192909252606081018690526080810185905260019060a0016020604051602081039080840390855afa158015610430573d6000803e3d6000fd5b5050604051601f19015191505073ffffffffffffffffffffffffffffffffffffffff81166104665760006001925092505061046d565b9150600090505b94509492505050565b60008060006060848603121561048b57600080fd5b833567ffffffffffffffff8111156104a257600080fd5b840161016081870312156104b557600080fd5b95602085013595506040909401359392505050565b6000808335601e198436030181126104e157600080fd5b83018035915067ffffffffffffffff8211156104fc57600080fd5b60200191503681900382131561023157600080fd5b60006001820161053157634e487b7160e01b600052601160045260246000fd5b5060010190565b634e487b7160e01b600052602160045260246000fdfea2646970667358221220406102c84bdbb671064ddca8c6f851605afd8406615c45350b69b513890753e964736f6c63430008110033a264697066735822122064c78e0d1701708e657dfe63616d8609c163ddb1d071dc3d9b94eadf2efbc3a064736f6c63430008110033",
  "devdoc": {
    "kind": "dev",
    "methods": {},
    "version": 1
  },
  "userdoc": {
    "kind": "user",
    "methods": {},
    "version": 1
  },
  "storageLayout": {
    "storage": [],
    "types": null
  }
}