{
  "address": "0xb2A25a5245419Bbb39627374CaF23F1B7a4637Fc",
  "abi": [
    {
      "inputs": [
        {
          "internalType": "enum IPaymaster.PostOpMode",
          "name": "mode",
          "type": "uint8"
        },
        {
          "internalType": "bytes",
          "name": "context",
          "type": "bytes"
        },
        {
          "internalType": "uint256",
          "name": "actualGasCost",
          "type": "uint256"
        }
      ],
      "name": "postOp",
      "outputs": [],
      "stateMutability": "nonpayable",
      "type": "function"
    },
    {
      "inputs": [
        {
          "components": [
            {
              "internalType": "address",
              "name": "sender",
              "type": "address"
            },
            {
              "internalType": "uint256",
              "name": "nonce",
              "type": "uint256"
            },
            {
              "internalType": "bytes",
              "name": "initCode",
              "type": "bytes"
            },
            {
              "internalType": "bytes",
              "name": "callData",
              "type": "bytes"
            },
            {
              "internalType": "uint256",
              "name": "callGasLimit",
              "type": "uint256"
            },
            {
              "internalType": "uint256",
              "name": "verificationGasLimit",
              "type": "uint256"
            },
            {
              "internalType": "uint256",
              "name": "preVerificationGas",
              "type": "uint256"
            },
            {
              "internalType": "uint256",
              "name": "maxFeePerGas",
              "type": "uint256"
            },
            {
              "internalType": "uint256",
              "name": "maxPriorityFeePerGas",
              "type": "uint256"
            },
            {
              "internalType": "bytes",
              "name": "paymasterAndData",
              "type": "bytes"
            },
            {
              "internalType": "bytes",
              "name": "signature",
              "type": "bytes"
            }
          ],
          "internalType": "struct UserOperation",
          "name": "",
          "type": "tuple"
        },
        {
          "internalType": "bytes32",
          "name": "",
          "type": "bytes32"
        },
        {
          "internalType": "uint256",
          "name": "",
          "type": "uint256"
        }
      ],
      "name": "validatePaymasterUserOp",
      "outputs": [
        {
          "internalType": "bytes",
          "name": "context",
          "type": "bytes"
        },
        {
          "internalType": "uint256",
          "name": "validationData",
          "type": "uint256"
        }
      ],
      "stateMutability": "pure",
      "type": "function"
    }
  ],
  "transactionHash": "0x1c51ff27138f1cc83775a310d63be7a37a0772464f4b906b6113df10b92a0226",
  "args": [],
  "numDeployments": 1,
  "solcInputHash": "1c95a052bac3a06d83c2532e5e20f29a",
  "bytecode": "0x608060405234801561001057600080fd5b506101fc806100206000396000f3fe608060405234801561001057600080fd5b50600436106100365760003560e01c8063a9a234091461003b578063f465c77e14610051575b600080fd5b61004f61004936600461008e565b50505050565b005b61007761005f36600461011d565b50506040805160008082526020820190925292909150565b604051610085929190610171565b60405180910390f35b600080600080606085870312156100a457600080fd5b8435600381106100b357600080fd5b9350602085013567ffffffffffffffff808211156100d057600080fd5b818701915087601f8301126100e457600080fd5b8135818111156100f357600080fd5b88602082850101111561010557600080fd5b95986020929092019750949560400135945092505050565b60008060006060848603121561013257600080fd5b833567ffffffffffffffff81111561014957600080fd5b8401610160818703121561015c57600080fd5b95602085013595506040909401359392505050565b604081526000835180604084015260005b8181101561019f5760208187018101516060868401015201610182565b506000606082850101526060601f19601f830116840101915050826020830152939250505056fea26469706673582212205d2349a6b1f055982d6c9acb9490c2e3b9c68131d6a7ee603b8203ec4221106564736f6c63430008110033",
  "devdoc": {
    "kind": "dev",
    "methods": {
      "postOp(uint8,bytes,uint256)": {
        "params": {
          "actualGasCost": "- actual gas used so far (without this postOp call).",
          "context": "- the context value returned by validatePaymasterUserOp",
          "mode": "enum with the following options:      opSucceeded - user operation succeeded.      opReverted  - user op reverted. still has to pay for gas.      postOpReverted - user op succeeded, but caused postOp (in mode=opSucceeded) to revert.                       Now this is the 2nd call, after user's op was deliberately reverted."
        }
      }
    },
    "version": 1
  },
  "userdoc": {
    "kind": "user",
    "methods": {
      "postOp(uint8,bytes,uint256)": {
        "notice": "post-operation handler. Must verify sender is the entryPoint"
      }
    },
    "version": 1
  },
  "storageLayout": {
    "storage": [],
    "types": null
  }
}